{
  "_format": "hh-sol-artifact-1",
  "contractName": "Raffle",
  "sourceName": "contracts/Raffle.sol",
  "abi": [
    {
      "inputs": [
        {
          "internalType": "uint256",
          "name": "entranceFee",
          "type": "uint256"
        },
        {
          "internalType": "uint256",
          "name": "subscriptionId",
          "type": "uint256"
        },
        {
          "internalType": "uint256",
          "name": "interval",
          "type": "uint256"
        },
        {
          "internalType": "address",
          "name": "_vrfCoordinator",
          "type": "address"
        }
      ],
      "stateMutability": "nonpayable",
      "type": "constructor"
    },
    {
      "inputs": [
        {
          "internalType": "address",
          "name": "have",
          "type": "address"
        },
        {
          "internalType": "address",
          "name": "want",
          "type": "address"
        }
      ],
      "name": "OnlyCoordinatorCanFulfill",
      "type": "error"
    },
    {
      "inputs": [
        {
          "internalType": "address",
          "name": "have",
          "type": "address"
        },
        {
          "internalType": "address",
          "name": "owner",
          "type": "address"
        },
        {
          "internalType": "address",
          "name": "coordinator",
          "type": "address"
        }
      ],
      "name": "OnlyOwnerOrCoordinator",
      "type": "error"
    },
    {
      "inputs": [],
      "name": "Raffle__RaffleNotOpen",
      "type": "error"
    },
    {
      "inputs": [],
      "name": "Raffle__SendMoreToEnterRaffle",
      "type": "error"
    },
    {
      "inputs": [
        {
          "internalType": "uint256",
          "name": "currentBalance",
          "type": "uint256"
        },
        {
          "internalType": "uint256",
          "name": "numPlayers",
          "type": "uint256"
        },
        {
          "internalType": "uint256",
          "name": "raffleState",
          "type": "uint256"
        }
      ],
      "name": "Raffle__UpkeepNotNeeded",
      "type": "error"
    },
    {
      "inputs": [],
      "name": "ZeroAddress",
      "type": "error"
    },
    {
      "anonymous": false,
      "inputs": [
        {
          "indexed": false,
          "internalType": "address",
          "name": "vrfCoordinator",
          "type": "address"
        }
      ],
      "name": "CoordinatorSet",
      "type": "event"
    },
    {
      "anonymous": false,
      "inputs": [
        {
          "indexed": true,
          "internalType": "address",
          "name": "from",
          "type": "address"
        },
        {
          "indexed": true,
          "internalType": "address",
          "name": "to",
          "type": "address"
        }
      ],
      "name": "OwnershipTransferRequested",
      "type": "event"
    },
    {
      "anonymous": false,
      "inputs": [
        {
          "indexed": true,
          "internalType": "address",
          "name": "from",
          "type": "address"
        },
        {
          "indexed": true,
          "internalType": "address",
          "name": "to",
          "type": "address"
        }
      ],
      "name": "OwnershipTransferred",
      "type": "event"
    },
    {
      "anonymous": false,
      "inputs": [
        {
          "indexed": true,
          "internalType": "address",
          "name": "player",
          "type": "address"
        }
      ],
      "name": "RaffleEnter",
      "type": "event"
    },
    {
      "anonymous": false,
      "inputs": [
        {
          "indexed": false,
          "internalType": "uint256",
          "name": "requestId",
          "type": "uint256"
        },
        {
          "indexed": false,
          "internalType": "uint256[]",
          "name": "randomWords",
          "type": "uint256[]"
        }
      ],
      "name": "RequestFulfilled",
      "type": "event"
    },
    {
      "anonymous": false,
      "inputs": [
        {
          "indexed": false,
          "internalType": "uint256",
          "name": "requestId",
          "type": "uint256"
        },
        {
          "indexed": false,
          "internalType": "uint32",
          "name": "numWords",
          "type": "uint32"
        }
      ],
      "name": "RequestSent",
      "type": "event"
    },
    {
      "anonymous": false,
      "inputs": [
        {
          "indexed": true,
          "internalType": "uint256",
          "name": "requestId",
          "type": "uint256"
        }
      ],
      "name": "RequestedRaffleWinner",
      "type": "event"
    },
    {
      "anonymous": false,
      "inputs": [
        {
          "indexed": true,
          "internalType": "address",
          "name": "player",
          "type": "address"
        }
      ],
      "name": "WinnerPicked",
      "type": "event"
    },
    {
      "inputs": [],
      "name": "acceptOwnership",
      "outputs": [],
      "stateMutability": "nonpayable",
      "type": "function"
    },
    {
      "inputs": [],
      "name": "callbackGasLimit",
      "outputs": [
        {
          "internalType": "uint32",
          "name": "",
          "type": "uint32"
        }
      ],
      "stateMutability": "view",
      "type": "function"
    },
    {
      "inputs": [
        {
          "internalType": "bytes",
          "name": "",
          "type": "bytes"
        }
      ],
      "name": "checkUpkeep",
      "outputs": [
        {
          "internalType": "bool",
          "name": "upkeepNeeded",
          "type": "bool"
        },
        {
          "internalType": "bytes",
          "name": "",
          "type": "bytes"
        }
      ],
      "stateMutability": "view",
      "type": "function"
    },
    {
      "inputs": [],
      "name": "enterRaffle",
      "outputs": [],
      "stateMutability": "payable",
      "type": "function"
    },
    {
      "inputs": [],
      "name": "getEntranceFee",
      "outputs": [
        {
          "internalType": "uint256",
          "name": "",
          "type": "uint256"
        }
      ],
      "stateMutability": "view",
      "type": "function"
    },
    {
      "inputs": [],
      "name": "getInterval",
      "outputs": [
        {
          "internalType": "uint256",
          "name": "",
          "type": "uint256"
        }
      ],
      "stateMutability": "view",
      "type": "function"
    },
    {
      "inputs": [],
      "name": "getLastTimeStamp",
      "outputs": [
        {
          "internalType": "uint256",
          "name": "",
          "type": "uint256"
        }
      ],
      "stateMutability": "view",
      "type": "function"
    },
    {
      "inputs": [],
      "name": "getNumberOfPlayers",
      "outputs": [
        {
          "internalType": "uint256",
          "name": "",
          "type": "uint256"
        }
      ],
      "stateMutability": "view",
      "type": "function"
    },
    {
      "inputs": [
        {
          "internalType": "uint256",
          "name": "index",
          "type": "uint256"
        }
      ],
      "name": "getPlayer",
      "outputs": [
        {
          "internalType": "address",
          "name": "",
          "type": "address"
        }
      ],
      "stateMutability": "view",
      "type": "function"
    },
    {
      "inputs": [],
      "name": "getRaffleState",
      "outputs": [
        {
          "internalType": "enum Raffle.RaffleState",
          "name": "",
          "type": "uint8"
        }
      ],
      "stateMutability": "view",
      "type": "function"
    },
    {
      "inputs": [],
      "name": "getRecentWinner",
      "outputs": [
        {
          "internalType": "address",
          "name": "",
          "type": "address"
        }
      ],
      "stateMutability": "view",
      "type": "function"
    },
    {
      "inputs": [],
      "name": "getRequestConfirmations",
      "outputs": [
        {
          "internalType": "uint256",
          "name": "",
          "type": "uint256"
        }
      ],
      "stateMutability": "pure",
      "type": "function"
    },
    {
      "inputs": [],
      "name": "keyHash",
      "outputs": [
        {
          "internalType": "bytes32",
          "name": "",
          "type": "bytes32"
        }
      ],
      "stateMutability": "view",
      "type": "function"
    },
    {
      "inputs": [],
      "name": "lastRequestId",
      "outputs": [
        {
          "internalType": "uint256",
          "name": "",
          "type": "uint256"
        }
      ],
      "stateMutability": "view",
      "type": "function"
    },
    {
      "inputs": [],
      "name": "numWords",
      "outputs": [
        {
          "internalType": "uint32",
          "name": "",
          "type": "uint32"
        }
      ],
      "stateMutability": "view",
      "type": "function"
    },
    {
      "inputs": [],
      "name": "owner",
      "outputs": [
        {
          "internalType": "address",
          "name": "",
          "type": "address"
        }
      ],
      "stateMutability": "view",
      "type": "function"
    },
    {
      "inputs": [
        {
          "internalType": "bytes",
          "name": "performData",
          "type": "bytes"
        }
      ],
      "name": "performUpkeep",
      "outputs": [],
      "stateMutability": "nonpayable",
      "type": "function"
    },
    {
      "inputs": [
        {
          "internalType": "uint256",
          "name": "requestId",
          "type": "uint256"
        },
        {
          "internalType": "uint256[]",
          "name": "randomWords",
          "type": "uint256[]"
        }
      ],
      "name": "rawFulfillRandomWords",
      "outputs": [],
      "stateMutability": "nonpayable",
      "type": "function"
    },
    {
      "inputs": [
        {
          "internalType": "uint256",
          "name": "",
          "type": "uint256"
        }
      ],
      "name": "requestIds",
      "outputs": [
        {
          "internalType": "uint256",
          "name": "",
          "type": "uint256"
        }
      ],
      "stateMutability": "view",
      "type": "function"
    },
    {
      "inputs": [
        {
          "internalType": "uint256",
          "name": "",
          "type": "uint256"
        }
      ],
      "name": "s_requests",
      "outputs": [
        {
          "internalType": "bool",
          "name": "fulfilled",
          "type": "bool"
        },
        {
          "internalType": "bool",
          "name": "exists",
          "type": "bool"
        }
      ],
      "stateMutability": "view",
      "type": "function"
    },
    {
      "inputs": [],
      "name": "s_subscriptionId",
      "outputs": [
        {
          "internalType": "uint256",
          "name": "",
          "type": "uint256"
        }
      ],
      "stateMutability": "view",
      "type": "function"
    },
    {
      "inputs": [],
      "name": "s_vrfCoordinator",
      "outputs": [
        {
          "internalType": "contract IVRFCoordinatorV2Plus",
          "name": "",
          "type": "address"
        }
      ],
      "stateMutability": "view",
      "type": "function"
    },
    {
      "inputs": [
        {
          "internalType": "address",
          "name": "_vrfCoordinator",
          "type": "address"
        }
      ],
      "name": "setCoordinator",
      "outputs": [],
      "stateMutability": "nonpayable",
      "type": "function"
    },
    {
      "inputs": [
        {
          "internalType": "address",
          "name": "to",
          "type": "address"
        }
      ],
      "name": "transferOwnership",
      "outputs": [],
      "stateMutability": "nonpayable",
      "type": "function"
    }
  ],
  "bytecode": "0x60c06040527f787d74caea10b2b357790d5b5247c2f63d1d91572a9846f780606e4d953677ae60001b600955620186a0600a60006101000a81548163ffffffff021916908363ffffffff1602179055506001600a60046101000a81548163ffffffff021916908363ffffffff16021790555034801561007d57600080fd5b50604051612f09380380612f09833981810160405281019061009f9190610458565b80338060008073ffffffffffffffffffffffffffffffffffffffff168273ffffffffffffffffffffffffffffffffffffffff1603610112576040517f08c379a00000000000000000000000000000000000000000000000000000000081526004016101099061051c565b60405180910390fd5b816000806101000a81548173ffffffffffffffffffffffffffffffffffffffff021916908373ffffffffffffffffffffffffffffffffffffffff160217905550600073ffffffffffffffffffffffffffffffffffffffff168173ffffffffffffffffffffffffffffffffffffffff1614610196576101958161029360201b60201c565b5b505050600073ffffffffffffffffffffffffffffffffffffffff168173ffffffffffffffffffffffffffffffffffffffff16036101ff576040517fd92e233d00000000000000000000000000000000000000000000000000000000815260040160405180910390fd5b80600260006101000a81548173ffffffffffffffffffffffffffffffffffffffff021916908373ffffffffffffffffffffffffffffffffffffffff160217905550508160808181525050826004819055508360a081815250506000600860006101000a81548160ff0219169083600181111561027e5761027d61053c565b5b021790555042600581905550505050506105d7565b3373ffffffffffffffffffffffffffffffffffffffff168173ffffffffffffffffffffffffffffffffffffffff1603610301576040517f08c379a00000000000000000000000000000000000000000000000000000000081526004016102f8906105b7565b60405180910390fd5b80600160006101000a81548173ffffffffffffffffffffffffffffffffffffffff021916908373ffffffffffffffffffffffffffffffffffffffff1602179055508073ffffffffffffffffffffffffffffffffffffffff1660008054906101000a900473ffffffffffffffffffffffffffffffffffffffff1673ffffffffffffffffffffffffffffffffffffffff167fed8889f560326eb138920d842192f0eb3dd22b4f139c87a2c57538e05bae127860405160405180910390a350565b600080fd5b6000819050919050565b6103d7816103c4565b81146103e257600080fd5b50565b6000815190506103f4816103ce565b92915050565b600073ffffffffffffffffffffffffffffffffffffffff82169050919050565b6000610425826103fa565b9050919050565b6104358161041a565b811461044057600080fd5b50565b6000815190506104528161042c565b92915050565b60008060008060808587031215610472576104716103bf565b5b6000610480878288016103e5565b9450506020610491878288016103e5565b93505060406104a2878288016103e5565b92505060606104b387828801610443565b91505092959194509250565b600082825260208201905092915050565b7f43616e6e6f7420736574206f776e657220746f207a65726f0000000000000000600082015250565b60006105066018836104bf565b9150610511826104d0565b602082019050919050565b60006020820190508181036000830152610535816104f9565b9050919050565b7f4e487b7100000000000000000000000000000000000000000000000000000000600052602160045260246000fd5b7f43616e6e6f74207472616e7366657220746f2073656c66000000000000000000600082015250565b60006105a16017836104bf565b91506105ac8261056b565b602082019050919050565b600060208201905081810360008301526105d081610594565b9050919050565b60805160a0516128ff61060a600039600081816105690152610682015260008181610b96015261101e01526128ff6000f3fe60806040526004361061014b5760003560e01c80638796ba8c116100b6578063a168fa891161006f578063a168fa8914610440578063c1c244e81461047e578063e55ae4e8146104a9578063f2fde38b146104e6578063fc2a88c31461050f578063fd6673f51461053a5761014b565b80638796ba8c1461032e5780638ac000211461036b5780638da5cb5b146103965780638ea98117146103c157806391ad27b4146103ea5780639eccacf6146104155761014b565b8063473f1ddc11610108578063473f1ddc1461022d5780635f1b0fd81461025857806361728f39146102835780636e04ff0d146102ae57806379ba5097146102ec5780637ccfd7fc146103035761014b565b806309bc33a714610150578063115cbaf51461017b5780631fe543e3146101a657806324f74697146101cf5780632cfcc539146101fa5780634585e33b14610204575b600080fd5b34801561015c57600080fd5b50610165610565565b6040516101729190611952565b60405180910390f35b34801561018757600080fd5b5061019061058d565b60405161019d91906119e4565b60405180910390f35b3480156101b257600080fd5b506101cd60048036038101906101c89190611aa4565b6105a4565b005b3480156101db57600080fd5b506101e461066a565b6040516101f19190611b23565b60405180910390f35b610202610680565b005b34801561021057600080fd5b5061022b60048036038101906102269190611b94565b6107ef565b005b34801561023957600080fd5b50610242610b16565b60405161024f9190611c22565b60405180910390f35b34801561026457600080fd5b5061026d610b40565b60405161027a9190611952565b60405180910390f35b34801561028f57600080fd5b50610298610b4d565b6040516102a59190611c56565b60405180910390f35b3480156102ba57600080fd5b506102d560048036038101906102d09190611db2565b610b53565b6040516102e3929190611e95565b60405180910390f35b3480156102f857600080fd5b50610301610c3b565b005b34801561030f57600080fd5b50610318610dd0565b6040516103259190611b23565b60405180910390f35b34801561033a57600080fd5b5061035560048036038101906103509190611ec5565b610de6565b6040516103629190611952565b60405180910390f35b34801561037757600080fd5b50610380610e0a565b60405161038d9190611952565b60405180910390f35b3480156103a257600080fd5b506103ab610e10565b6040516103b89190611c22565b60405180910390f35b3480156103cd57600080fd5b506103e860048036038101906103e39190611f1e565b610e39565b005b3480156103f657600080fd5b506103ff61101a565b60405161040c9190611952565b60405180910390f35b34801561042157600080fd5b5061042a611042565b6040516104379190611faa565b60405180910390f35b34801561044c57600080fd5b5061046760048036038101906104629190611ec5565b611068565b604051610475929190611fc5565b60405180910390f35b34801561048a57600080fd5b506104936110a6565b6040516104a09190611952565b60405180910390f35b3480156104b557600080fd5b506104d060048036038101906104cb9190611ec5565b6110b0565b6040516104dd9190611c22565b60405180910390f35b3480156104f257600080fd5b5061050d60048036038101906105089190611f1e565b6110f8565b005b34801561051b57600080fd5b5061052461110c565b6040516105319190611952565b60405180910390f35b34801561054657600080fd5b5061054f611112565b60405161055c9190611952565b60405180910390f35b60007f0000000000000000000000000000000000000000000000000000000000000000905090565b6000600860009054906101000a900460ff16905090565b600260009054906101000a900473ffffffffffffffffffffffffffffffffffffffff1673ffffffffffffffffffffffffffffffffffffffff163373ffffffffffffffffffffffffffffffffffffffff161461065a5733600260009054906101000a900473ffffffffffffffffffffffffffffffffffffffff166040517f1cf993f4000000000000000000000000000000000000000000000000000000008152600401610651929190611fee565b60405180910390fd5b61066583838361111f565b505050565b600a60009054906101000a900463ffffffff1681565b7f00000000000000000000000000000000000000000000000000000000000000003410156106da576040517f3038c00a00000000000000000000000000000000000000000000000000000000815260040160405180910390fd5b600060018111156106ee576106ed61196d565b5b600860009054906101000a900460ff1660018111156107105761070f61196d565b5b14610747576040517fd24a271400000000000000000000000000000000000000000000000000000000815260040160405180910390fd5b6007339080600181540180825580915050600190039060005260206000200160009091909190916101000a81548173ffffffffffffffffffffffffffffffffffffffff021916908373ffffffffffffffffffffffffffffffffffffffff1602179055503373ffffffffffffffffffffffffffffffffffffffff167f0805e1d667bddb8a95f0f09880cf94f403fb596ce79928d9f29b74203ba284d460405160405180910390a2565b600061080960405180602001604052806000815250610b53565b5090506000838381019061081d9190612043565b90508161088b5747600780549050600860009054906101000a900460ff16600181111561084d5761084c61196d565b5b6040517f584327aa00000000000000000000000000000000000000000000000000000000815260040161088293929190612070565b60405180910390fd5b6001600860006101000a81548160ff021916908360018111156108b1576108b061196d565b5b02179055506000600260009054906101000a900473ffffffffffffffffffffffffffffffffffffffff1673ffffffffffffffffffffffffffffffffffffffff16639b1c385e6040518060c0016040528060095481526020016004548152602001600361ffff168152602001600a60009054906101000a900463ffffffff1663ffffffff168152602001600a60049054906101000a900463ffffffff1663ffffffff16815260200161097160405180602001604052808815158152506114a9565b8152506040518263ffffffff1660e01b815260040161099091906121c4565b6020604051808303816000875af11580156109af573d6000803e3d6000fd5b505050506040513d601f19601f820116820180604052508101906109d391906121fb565b905080600c81905550600b8190806001815401808255809150506001900390600052602060002001600090919091909150556040518060600160405280600015158152602001600115158152602001600067ffffffffffffffff811115610a3d57610a3c611c87565b5b604051908082528060200260200182016040528015610a6b5781602001602082028036833780820191505090505b508152506003600083815260200190815260200160002060008201518160000160006101000a81548160ff02191690831515021790555060208201518160000160016101000a81548160ff0219169083151502179055506040820151816001019080519060200190610ade929190611878565b50905050807fcd6e45c8998311cab7e9d4385596cac867e20a0587194b954fa3a731c93ce78b60405160405180910390a25050505050565b6000600660009054906101000a900473ffffffffffffffffffffffffffffffffffffffff16905090565b6000600361ffff16905090565b60095481565b600060606000600860009054906101000a900460ff166001811115610b7b57610b7a61196d565b5b60006001811115610b8f57610b8e61196d565b5b14905060007f000000000000000000000000000000000000000000000000000000000000000060055442610bc39190612257565b11905060008060078054905011905060008047119050828015610be35750835b8015610bec5750805b8015610bf55750815b9550856040518060400160405280600381526020017f30783000000000000000000000000000000000000000000000000000000000008152509550955050505050915091565b600160009054906101000a900473ffffffffffffffffffffffffffffffffffffffff1673ffffffffffffffffffffffffffffffffffffffff163373ffffffffffffffffffffffffffffffffffffffff1614610ccb576040517f08c379a0000000000000000000000000000000000000000000000000000000008152600401610cc2906122e8565b60405180910390fd5b60008060009054906101000a900473ffffffffffffffffffffffffffffffffffffffff169050336000806101000a81548173ffffffffffffffffffffffffffffffffffffffff021916908373ffffffffffffffffffffffffffffffffffffffff1602179055506000600160006101000a81548173ffffffffffffffffffffffffffffffffffffffff021916908373ffffffffffffffffffffffffffffffffffffffff1602179055503373ffffffffffffffffffffffffffffffffffffffff168173ffffffffffffffffffffffffffffffffffffffff167f8be0079c531659141344cd1fd0a4f28419497f9722a3daafe3b4186f6b6457e060405160405180910390a350565b600a60049054906101000a900463ffffffff1681565b600b8181548110610df657600080fd5b906000526020600020016000915090505481565b60045481565b60008060009054906101000a900473ffffffffffffffffffffffffffffffffffffffff16905090565b610e41610e10565b73ffffffffffffffffffffffffffffffffffffffff163373ffffffffffffffffffffffffffffffffffffffff1614158015610eca5750600260009054906101000a900473ffffffffffffffffffffffffffffffffffffffff1673ffffffffffffffffffffffffffffffffffffffff163373ffffffffffffffffffffffffffffffffffffffff1614155b15610f395733610ed8610e10565b600260009054906101000a900473ffffffffffffffffffffffffffffffffffffffff166040517f061db9c1000000000000000000000000000000000000000000000000000000008152600401610f3093929190612308565b60405180910390fd5b600073ffffffffffffffffffffffffffffffffffffffff168173ffffffffffffffffffffffffffffffffffffffff1603610f9f576040517fd92e233d00000000000000000000000000000000000000000000000000000000815260040160405180910390fd5b80600260006101000a81548173ffffffffffffffffffffffffffffffffffffffff021916908373ffffffffffffffffffffffffffffffffffffffff1602179055507fd1a6a14209a385a964d036e404cb5cfb71f4000cdb03c9366292430787261be68160405161100f9190611c22565b60405180910390a150565b60007f0000000000000000000000000000000000000000000000000000000000000000905090565b600260009054906101000a900473ffffffffffffffffffffffffffffffffffffffff1681565b60036020528060005260406000206000915090508060000160009054906101000a900460ff16908060000160019054906101000a900460ff16905082565b6000600554905090565b6000600782815481106110c6576110c561233f565b5b9060005260206000200160009054906101000a900473ffffffffffffffffffffffffffffffffffffffff169050919050565b611100611541565b611109816115d1565b50565b600c5481565b6000600780549050905090565b6111406040518060a0016040528060638152602001612804606391396116fd565b6111616040518060a0016040528060638152602001612615606391396116fd565b60016003600085815260200190815260200160002060000160006101000a81548160ff02191690831515021790555081816003600086815260200190815260200160002060010191906111b59291906118c5565b506111d76040518060a0016040528060638152602001612678606391396116fd565b600060078080549050848460008181106111f4576111f361233f565b5b90506020020135611205919061239d565b815481106112165761121561233f565b5b9060005260206000200160009054906101000a900473ffffffffffffffffffffffffffffffffffffffff1690506112646040518060a00160405280606381526020016126db606391396116fd565b80600660006101000a81548173ffffffffffffffffffffffffffffffffffffffff021916908373ffffffffffffffffffffffffffffffffffffffff1602179055506112c66040518060a00160405280606381526020016126db606391396116fd565b6112e76040518060a00160405280606381526020016126db606391396116fd565b6113086040518060a00160405280606381526020016126db606391396116fd565b6113296040518060a00160405280606381526020016126db606391396116fd565b61134a6040518060a00160405280606381526020016126db606391396116fd565b61136b6040518060a00160405280606381526020016126db606391396116fd565b61138c6040518060a0016040528060638152602001612867606391396116fd565b6000600860006101000a81548160ff021916908360018111156113b2576113b161196d565b5b02179055506113f66040518060400160405280601281526020017f57696e6e657220416464726573733a202573000000000000000000000000000081525082611796565b6114176040518060a001604052806063815260200161273e606391396116fd565b4260058190555061143f6040518060a00160405280606381526020016127a1606391396116fd565b6114606040518060a00160405280606381526020016125b2606391396116fd565b8073ffffffffffffffffffffffffffffffffffffffff167f5b690ec4a06fe979403046eaeea5b3ce38524683c3001f662c8b5a829632f7df60405160405180910390a250505050565b60607f92fd13387c7fe7befbc38d303d6468778fb9731bc4583f17d92989c6fcfdeaaa826040516024016114dd91906123f9565b604051602081830303815290604052907bffffffffffffffffffffffffffffffffffffffffffffffffffffffff19166020820180517bffffffffffffffffffffffffffffffffffffffffffffffffffffffff83818316178352505050509050919050565b60008054906101000a900473ffffffffffffffffffffffffffffffffffffffff1673ffffffffffffffffffffffffffffffffffffffff163373ffffffffffffffffffffffffffffffffffffffff16146115cf576040517f08c379a00000000000000000000000000000000000000000000000000000000081526004016115c690612460565b60405180910390fd5b565b3373ffffffffffffffffffffffffffffffffffffffff168173ffffffffffffffffffffffffffffffffffffffff160361163f576040517f08c379a0000000000000000000000000000000000000000000000000000000008152600401611636906124cc565b60405180910390fd5b80600160006101000a81548173ffffffffffffffffffffffffffffffffffffffff021916908373ffffffffffffffffffffffffffffffffffffffff1602179055508073ffffffffffffffffffffffffffffffffffffffff1660008054906101000a900473ffffffffffffffffffffffffffffffffffffffff1673ffffffffffffffffffffffffffffffffffffffff167fed8889f560326eb138920d842192f0eb3dd22b4f139c87a2c57538e05bae127860405160405180910390a350565b611793816040516024016117119190612530565b6040516020818303038152906040527f41304fac000000000000000000000000000000000000000000000000000000007bffffffffffffffffffffffffffffffffffffffffffffffffffffffff19166020820180517bffffffffffffffffffffffffffffffffffffffffffffffffffffffff8381831617835250505050611832565b50565b61182e82826040516024016117ac929190612552565b6040516020818303038152906040527f319af333000000000000000000000000000000000000000000000000000000007bffffffffffffffffffffffffffffffffffffffffffffffffffffffff19166020820180517bffffffffffffffffffffffffffffffffffffffffffffffffffffffff8381831617835250505050611832565b5050565b6118498161184161184c61186d565b63ffffffff16565b50565b60006a636f6e736f6c652e6c6f679050600080835160208501845afa505050565b611912819050919050565b8280548282559060005260206000209081019282156118b4579160200282015b828111156118b3578251825591602001919060010190611898565b5b5090506118c1919061191c565b5090565b828054828255906000526020600020908101928215611901579160200282015b828111156119005782358255916020019190600101906118e5565b5b50905061190e919061191c565b5090565b61191a612582565b565b5b8082111561193557600081600090555060010161191d565b5090565b6000819050919050565b61194c81611939565b82525050565b60006020820190506119676000830184611943565b92915050565b7f4e487b7100000000000000000000000000000000000000000000000000000000600052602160045260246000fd5b600281106119ad576119ac61196d565b5b50565b60008190506119be8261199c565b919050565b60006119ce826119b0565b9050919050565b6119de816119c3565b82525050565b60006020820190506119f960008301846119d5565b92915050565b6000604051905090565b600080fd5b600080fd5b611a1c81611939565b8114611a2757600080fd5b50565b600081359050611a3981611a13565b92915050565b600080fd5b600080fd5b600080fd5b60008083601f840112611a6457611a63611a3f565b5b8235905067ffffffffffffffff811115611a8157611a80611a44565b5b602083019150836020820283011115611a9d57611a9c611a49565b5b9250929050565b600080600060408486031215611abd57611abc611a09565b5b6000611acb86828701611a2a565b935050602084013567ffffffffffffffff811115611aec57611aeb611a0e565b5b611af886828701611a4e565b92509250509250925092565b600063ffffffff82169050919050565b611b1d81611b04565b82525050565b6000602082019050611b386000830184611b14565b92915050565b60008083601f840112611b5457611b53611a3f565b5b8235905067ffffffffffffffff811115611b7157611b70611a44565b5b602083019150836001820283011115611b8d57611b8c611a49565b5b9250929050565b60008060208385031215611bab57611baa611a09565b5b600083013567ffffffffffffffff811115611bc957611bc8611a0e565b5b611bd585828601611b3e565b92509250509250929050565b600073ffffffffffffffffffffffffffffffffffffffff82169050919050565b6000611c0c82611be1565b9050919050565b611c1c81611c01565b82525050565b6000602082019050611c376000830184611c13565b92915050565b6000819050919050565b611c5081611c3d565b82525050565b6000602082019050611c6b6000830184611c47565b92915050565b600080fd5b6000601f19601f8301169050919050565b7f4e487b7100000000000000000000000000000000000000000000000000000000600052604160045260246000fd5b611cbf82611c76565b810181811067ffffffffffffffff82111715611cde57611cdd611c87565b5b80604052505050565b6000611cf16119ff565b9050611cfd8282611cb6565b919050565b600067ffffffffffffffff821115611d1d57611d1c611c87565b5b611d2682611c76565b9050602081019050919050565b82818337600083830152505050565b6000611d55611d5084611d02565b611ce7565b905082815260208101848484011115611d7157611d70611c71565b5b611d7c848285611d33565b509392505050565b600082601f830112611d9957611d98611a3f565b5b8135611da9848260208601611d42565b91505092915050565b600060208284031215611dc857611dc7611a09565b5b600082013567ffffffffffffffff811115611de657611de5611a0e565b5b611df284828501611d84565b91505092915050565b60008115159050919050565b611e1081611dfb565b82525050565b600081519050919050565b600082825260208201905092915050565b60005b83811015611e50578082015181840152602081019050611e35565b60008484015250505050565b6000611e6782611e16565b611e718185611e21565b9350611e81818560208601611e32565b611e8a81611c76565b840191505092915050565b6000604082019050611eaa6000830185611e07565b8181036020830152611ebc8184611e5c565b90509392505050565b600060208284031215611edb57611eda611a09565b5b6000611ee984828501611a2a565b91505092915050565b611efb81611c01565b8114611f0657600080fd5b50565b600081359050611f1881611ef2565b92915050565b600060208284031215611f3457611f33611a09565b5b6000611f4284828501611f09565b91505092915050565b6000819050919050565b6000611f70611f6b611f6684611be1565b611f4b565b611be1565b9050919050565b6000611f8282611f55565b9050919050565b6000611f9482611f77565b9050919050565b611fa481611f89565b82525050565b6000602082019050611fbf6000830184611f9b565b92915050565b6000604082019050611fda6000830185611e07565b611fe76020830184611e07565b9392505050565b60006040820190506120036000830185611c13565b6120106020830184611c13565b9392505050565b61202081611dfb565b811461202b57600080fd5b50565b60008135905061203d81612017565b92915050565b60006020828403121561205957612058611a09565b5b60006120678482850161202e565b91505092915050565b60006060820190506120856000830186611943565b6120926020830185611943565b61209f6040830184611943565b949350505050565b6120b081611c3d565b82525050565b6120bf81611939565b82525050565b600061ffff82169050919050565b6120dc816120c5565b82525050565b6120eb81611b04565b82525050565b600082825260208201905092915050565b600061210d82611e16565b61211781856120f1565b9350612127818560208601611e32565b61213081611c76565b840191505092915050565b600060c08301600083015161215360008601826120a7565b50602083015161216660208601826120b6565b50604083015161217960408601826120d3565b50606083015161218c60608601826120e2565b50608083015161219f60808601826120e2565b5060a083015184820360a08601526121b78282612102565b9150508091505092915050565b600060208201905081810360008301526121de818461213b565b905092915050565b6000815190506121f581611a13565b92915050565b60006020828403121561221157612210611a09565b5b600061221f848285016121e6565b91505092915050565b7f4e487b7100000000000000000000000000000000000000000000000000000000600052601160045260246000fd5b600061226282611939565b915061226d83611939565b925082820390508181111561228557612284612228565b5b92915050565b600082825260208201905092915050565b7f4d7573742062652070726f706f736564206f776e657200000000000000000000600082015250565b60006122d260168361228b565b91506122dd8261229c565b602082019050919050565b60006020820190508181036000830152612301816122c5565b9050919050565b600060608201905061231d6000830186611c13565b61232a6020830185611c13565b6123376040830184611c13565b949350505050565b7f4e487b7100000000000000000000000000000000000000000000000000000000600052603260045260246000fd5b7f4e487b7100000000000000000000000000000000000000000000000000000000600052601260045260246000fd5b60006123a882611939565b91506123b383611939565b9250826123c3576123c261236e565b5b828206905092915050565b6123d781611dfb565b82525050565b6020820160008201516123f360008501826123ce565b50505050565b600060208201905061240e60008301846123dd565b92915050565b7f4f6e6c792063616c6c61626c65206279206f776e657200000000000000000000600082015250565b600061244a60168361228b565b915061245582612414565b602082019050919050565b600060208201905081810360008301526124798161243d565b9050919050565b7f43616e6e6f74207472616e7366657220746f2073656c66000000000000000000600082015250565b60006124b660178361228b565b91506124c182612480565b602082019050919050565b600060208201905081810360008301526124e5816124a9565b9050919050565b600081519050919050565b6000612502826124ec565b61250c818561228b565b935061251c818560208601611e32565b61252581611c76565b840191505092915050565b6000602082019050818103600083015261254a81846124f7565b905092915050565b6000604082019050818103600083015261256c81856124f7565b905061257b6020830184611c13565b9392505050565b7f4e487b7100000000000000000000000000000000000000000000000000000000600052605160045260246000fdfe232323232323232323232323232323232323232323232323232323232323232323232323232323232323232323232323232323232323232323232323383838383838383838383838383838383838383838383838383838383838383838383838383838232323232323232323232323232323232323232323232323232323232323232323232323232323232323232323232323232323232323232323232323323232323232323232323232323232323232323232323232323232323232323232323232323232232323232323232323232323232323232323232323232323232323232323232323232323232323232323232323232323232323232323232323232323333333333333333333333333333333333333333333333333333333333333333333333333333333232323232323232323232323232323232323232323232323232323232323232323232323232323232323232323232323232323232323232323232323343434343434343434343434343434343434343434343434343434343434343434343434343434232323232323232323232323232323232323232323232323232323232323232323232323232323232323232323232323232323232323232323232323363636363636363636363636363636363636363636363636363636363636363636363636363636232323232323232323232323232323232323232323232323232323232323232323232323232323232323232323232323232323232323232323232323373737373737373737373737373737373737373737373737373737373737373737373737373737232323232323232323232323232323232323232323232323232323232323232323232323232323232323232323232323232323232323232323232323313131313131313131313131313131313131313131313131313131313131313131313131313131232323232323232323232323232323232323232323232323232323232323232323232323232323232323232323232323232323232323232323232323353535353535353535353535353535353535353535353535353535353535353535353535353535a2646970667358221220f25ef71de4763ddf1aa50fd97c4c3ee44efd37231f5448f3380df043a28849b264736f6c634300081c0033",
  "linkReferences": {},
  "deployedLinkReferences": {}
}