{
  "_format": "hh-sol-artifact-1",
  "contractName": "Raffle",
  "sourceName": "contracts/Raffle.sol",
  "abi": [
    {
      "inputs": [
        {
          "internalType": "uint256",
          "name": "entranceFee",
          "type": "uint256"
        },
        {
          "internalType": "uint256",
          "name": "subscriptionId",
          "type": "uint256"
        },
        {
          "internalType": "uint256",
          "name": "interval",
          "type": "uint256"
        },
        {
          "internalType": "address",
          "name": "_vrfCoordinator",
          "type": "address"
        }
      ],
      "stateMutability": "nonpayable",
      "type": "constructor"
    },
    {
      "inputs": [
        {
          "internalType": "address",
          "name": "have",
          "type": "address"
        },
        {
          "internalType": "address",
          "name": "want",
          "type": "address"
        }
      ],
      "name": "OnlyCoordinatorCanFulfill",
      "type": "error"
    },
    {
      "inputs": [
        {
          "internalType": "address",
          "name": "have",
          "type": "address"
        },
        {
          "internalType": "address",
          "name": "owner",
          "type": "address"
        },
        {
          "internalType": "address",
          "name": "coordinator",
          "type": "address"
        }
      ],
      "name": "OnlyOwnerOrCoordinator",
      "type": "error"
    },
    {
      "inputs": [],
      "name": "Raffle_WinnerIsNotSelectedYet",
      "type": "error"
    },
    {
      "inputs": [],
      "name": "Raffle__RaffleNotOpen",
      "type": "error"
    },
    {
      "inputs": [],
      "name": "Raffle__SendMoreToEnterRaffle",
      "type": "error"
    },
    {
      "inputs": [],
      "name": "Raffle__TransferFailed",
      "type": "error"
    },
    {
      "inputs": [
        {
          "internalType": "uint256",
          "name": "currentBalance",
          "type": "uint256"
        },
        {
          "internalType": "uint256",
          "name": "numPlayers",
          "type": "uint256"
        },
        {
          "internalType": "uint256",
          "name": "raffleState",
          "type": "uint256"
        }
      ],
      "name": "Raffle__UpkeepNotNeeded",
      "type": "error"
    },
    {
      "inputs": [],
      "name": "ZeroAddress",
      "type": "error"
    },
    {
      "anonymous": false,
      "inputs": [
        {
          "indexed": false,
          "internalType": "address",
          "name": "vrfCoordinator",
          "type": "address"
        }
      ],
      "name": "CoordinatorSet",
      "type": "event"
    },
    {
      "anonymous": false,
      "inputs": [
        {
          "indexed": true,
          "internalType": "address",
          "name": "from",
          "type": "address"
        },
        {
          "indexed": true,
          "internalType": "address",
          "name": "to",
          "type": "address"
        }
      ],
      "name": "OwnershipTransferRequested",
      "type": "event"
    },
    {
      "anonymous": false,
      "inputs": [
        {
          "indexed": true,
          "internalType": "address",
          "name": "from",
          "type": "address"
        },
        {
          "indexed": true,
          "internalType": "address",
          "name": "to",
          "type": "address"
        }
      ],
      "name": "OwnershipTransferred",
      "type": "event"
    },
    {
      "anonymous": false,
      "inputs": [
        {
          "indexed": true,
          "internalType": "address",
          "name": "player",
          "type": "address"
        }
      ],
      "name": "RaffleEnter",
      "type": "event"
    },
    {
      "anonymous": false,
      "inputs": [
        {
          "indexed": false,
          "internalType": "uint256",
          "name": "requestId",
          "type": "uint256"
        },
        {
          "indexed": false,
          "internalType": "uint256[]",
          "name": "randomWords",
          "type": "uint256[]"
        }
      ],
      "name": "RequestFulfilled",
      "type": "event"
    },
    {
      "anonymous": false,
      "inputs": [
        {
          "indexed": false,
          "internalType": "uint256",
          "name": "requestId",
          "type": "uint256"
        },
        {
          "indexed": false,
          "internalType": "uint32",
          "name": "numWords",
          "type": "uint32"
        }
      ],
      "name": "RequestSent",
      "type": "event"
    },
    {
      "anonymous": false,
      "inputs": [
        {
          "indexed": true,
          "internalType": "uint256",
          "name": "requestId",
          "type": "uint256"
        }
      ],
      "name": "RequestedRaffleWinner",
      "type": "event"
    },
    {
      "anonymous": false,
      "inputs": [
        {
          "indexed": true,
          "internalType": "address",
          "name": "player",
          "type": "address"
        }
      ],
      "name": "WinnerPicked",
      "type": "event"
    },
    {
      "inputs": [],
      "name": "acceptOwnership",
      "outputs": [],
      "stateMutability": "nonpayable",
      "type": "function"
    },
    {
      "inputs": [],
      "name": "callbackGasLimit",
      "outputs": [
        {
          "internalType": "uint32",
          "name": "",
          "type": "uint32"
        }
      ],
      "stateMutability": "view",
      "type": "function"
    },
    {
      "inputs": [
        {
          "internalType": "bytes",
          "name": "",
          "type": "bytes"
        }
      ],
      "name": "checkUpkeep",
      "outputs": [
        {
          "internalType": "bool",
          "name": "upkeepNeeded",
          "type": "bool"
        },
        {
          "internalType": "bytes",
          "name": "",
          "type": "bytes"
        }
      ],
      "stateMutability": "view",
      "type": "function"
    },
    {
      "inputs": [],
      "name": "enterRaffle",
      "outputs": [],
      "stateMutability": "payable",
      "type": "function"
    },
    {
      "inputs": [],
      "name": "getEntranceFee",
      "outputs": [
        {
          "internalType": "uint256",
          "name": "",
          "type": "uint256"
        }
      ],
      "stateMutability": "view",
      "type": "function"
    },
    {
      "inputs": [],
      "name": "getInterval",
      "outputs": [
        {
          "internalType": "uint256",
          "name": "",
          "type": "uint256"
        }
      ],
      "stateMutability": "view",
      "type": "function"
    },
    {
      "inputs": [],
      "name": "getLastTimeStamp",
      "outputs": [
        {
          "internalType": "uint256",
          "name": "",
          "type": "uint256"
        }
      ],
      "stateMutability": "view",
      "type": "function"
    },
    {
      "inputs": [],
      "name": "getNumberOfPlayers",
      "outputs": [
        {
          "internalType": "uint256",
          "name": "",
          "type": "uint256"
        }
      ],
      "stateMutability": "view",
      "type": "function"
    },
    {
      "inputs": [
        {
          "internalType": "uint256",
          "name": "index",
          "type": "uint256"
        }
      ],
      "name": "getPlayer",
      "outputs": [
        {
          "internalType": "address",
          "name": "",
          "type": "address"
        }
      ],
      "stateMutability": "view",
      "type": "function"
    },
    {
      "inputs": [],
      "name": "getRaffleState",
      "outputs": [
        {
          "internalType": "enum Raffle.RaffleState",
          "name": "",
          "type": "uint8"
        }
      ],
      "stateMutability": "view",
      "type": "function"
    },
    {
      "inputs": [],
      "name": "getRecentWinner",
      "outputs": [
        {
          "internalType": "address",
          "name": "",
          "type": "address"
        }
      ],
      "stateMutability": "view",
      "type": "function"
    },
    {
      "inputs": [],
      "name": "getRequestConfirmations",
      "outputs": [
        {
          "internalType": "uint256",
          "name": "",
          "type": "uint256"
        }
      ],
      "stateMutability": "pure",
      "type": "function"
    },
    {
      "inputs": [],
      "name": "keyHash",
      "outputs": [
        {
          "internalType": "bytes32",
          "name": "",
          "type": "bytes32"
        }
      ],
      "stateMutability": "view",
      "type": "function"
    },
    {
      "inputs": [],
      "name": "lastRequestId",
      "outputs": [
        {
          "internalType": "uint256",
          "name": "",
          "type": "uint256"
        }
      ],
      "stateMutability": "view",
      "type": "function"
    },
    {
      "inputs": [],
      "name": "numWords",
      "outputs": [
        {
          "internalType": "uint32",
          "name": "",
          "type": "uint32"
        }
      ],
      "stateMutability": "view",
      "type": "function"
    },
    {
      "inputs": [],
      "name": "owner",
      "outputs": [
        {
          "internalType": "address",
          "name": "",
          "type": "address"
        }
      ],
      "stateMutability": "view",
      "type": "function"
    },
    {
      "inputs": [
        {
          "internalType": "bytes",
          "name": "performData",
          "type": "bytes"
        }
      ],
      "name": "performUpkeep",
      "outputs": [],
      "stateMutability": "nonpayable",
      "type": "function"
    },
    {
      "inputs": [
        {
          "internalType": "uint256",
          "name": "requestId",
          "type": "uint256"
        },
        {
          "internalType": "uint256[]",
          "name": "randomWords",
          "type": "uint256[]"
        }
      ],
      "name": "rawFulfillRandomWords",
      "outputs": [],
      "stateMutability": "nonpayable",
      "type": "function"
    },
    {
      "inputs": [
        {
          "internalType": "uint256",
          "name": "",
          "type": "uint256"
        }
      ],
      "name": "requestIds",
      "outputs": [
        {
          "internalType": "uint256",
          "name": "",
          "type": "uint256"
        }
      ],
      "stateMutability": "view",
      "type": "function"
    },
    {
      "inputs": [
        {
          "internalType": "uint256",
          "name": "",
          "type": "uint256"
        }
      ],
      "name": "s_requests",
      "outputs": [
        {
          "internalType": "bool",
          "name": "fulfilled",
          "type": "bool"
        },
        {
          "internalType": "bool",
          "name": "exists",
          "type": "bool"
        }
      ],
      "stateMutability": "view",
      "type": "function"
    },
    {
      "inputs": [],
      "name": "s_subscriptionId",
      "outputs": [
        {
          "internalType": "uint256",
          "name": "",
          "type": "uint256"
        }
      ],
      "stateMutability": "view",
      "type": "function"
    },
    {
      "inputs": [],
      "name": "s_vrfCoordinator",
      "outputs": [
        {
          "internalType": "contract IVRFCoordinatorV2Plus",
          "name": "",
          "type": "address"
        }
      ],
      "stateMutability": "view",
      "type": "function"
    },
    {
      "inputs": [
        {
          "internalType": "address",
          "name": "_vrfCoordinator",
          "type": "address"
        }
      ],
      "name": "setCoordinator",
      "outputs": [],
      "stateMutability": "nonpayable",
      "type": "function"
    },
    {
      "inputs": [
        {
          "internalType": "address",
          "name": "to",
          "type": "address"
        }
      ],
      "name": "transferOwnership",
      "outputs": [],
      "stateMutability": "nonpayable",
      "type": "function"
    }
  ],
  "bytecode": "0x60c06040527f787d74caea10b2b357790d5b5247c2f63d1d91572a9846f780606e4d953677ae60001b600955620186a0600a60006101000a81548163ffffffff021916908363ffffffff1602179055506001600a60046101000a81548163ffffffff021916908363ffffffff16021790555034801561007d57600080fd5b50604051612ac3380380612ac3833981810160405281019061009f9190610458565b80338060008073ffffffffffffffffffffffffffffffffffffffff168273ffffffffffffffffffffffffffffffffffffffff1603610112576040517f08c379a00000000000000000000000000000000000000000000000000000000081526004016101099061051c565b60405180910390fd5b816000806101000a81548173ffffffffffffffffffffffffffffffffffffffff021916908373ffffffffffffffffffffffffffffffffffffffff160217905550600073ffffffffffffffffffffffffffffffffffffffff168173ffffffffffffffffffffffffffffffffffffffff1614610196576101958161029360201b60201c565b5b505050600073ffffffffffffffffffffffffffffffffffffffff168173ffffffffffffffffffffffffffffffffffffffff16036101ff576040517fd92e233d00000000000000000000000000000000000000000000000000000000815260040160405180910390fd5b80600260006101000a81548173ffffffffffffffffffffffffffffffffffffffff021916908373ffffffffffffffffffffffffffffffffffffffff160217905550508160808181525050826004819055508360a081815250506000600860006101000a81548160ff0219169083600181111561027e5761027d61053c565b5b021790555042600581905550505050506105d7565b3373ffffffffffffffffffffffffffffffffffffffff168173ffffffffffffffffffffffffffffffffffffffff1603610301576040517f08c379a00000000000000000000000000000000000000000000000000000000081526004016102f8906105b7565b60405180910390fd5b80600160006101000a81548173ffffffffffffffffffffffffffffffffffffffff021916908373ffffffffffffffffffffffffffffffffffffffff1602179055508073ffffffffffffffffffffffffffffffffffffffff1660008054906101000a900473ffffffffffffffffffffffffffffffffffffffff1673ffffffffffffffffffffffffffffffffffffffff167fed8889f560326eb138920d842192f0eb3dd22b4f139c87a2c57538e05bae127860405160405180910390a350565b600080fd5b6000819050919050565b6103d7816103c4565b81146103e257600080fd5b50565b6000815190506103f4816103ce565b92915050565b600073ffffffffffffffffffffffffffffffffffffffff82169050919050565b6000610425826103fa565b9050919050565b6104358161041a565b811461044057600080fd5b50565b6000815190506104528161042c565b92915050565b60008060008060808587031215610472576104716103bf565b5b6000610480878288016103e5565b9450506020610491878288016103e5565b93505060406104a2878288016103e5565b92505060606104b387828801610443565b91505092959194509250565b600082825260208201905092915050565b7f43616e6e6f7420736574206f776e657220746f207a65726f0000000000000000600082015250565b60006105066018836104bf565b9150610511826104d0565b602082019050919050565b60006020820190508181036000830152610535816104f9565b9050919050565b7f4e487b7100000000000000000000000000000000000000000000000000000000600052602160045260246000fd5b7f43616e6e6f74207472616e7366657220746f2073656c66000000000000000000600082015250565b60006105a16017836104bf565b91506105ac8261056b565b602082019050919050565b600060208201905081810360008301526105d081610594565b9050919050565b60805160a0516124b961060a600039600081816105690152610682015260008181610b96015261101e01526124b96000f3fe60806040526004361061014b5760003560e01c80638796ba8c116100b6578063a168fa891161006f578063a168fa8914610440578063c1c244e81461047e578063e55ae4e8146104a9578063f2fde38b146104e6578063fc2a88c31461050f578063fd6673f51461053a5761014b565b80638796ba8c1461032e5780638ac000211461036b5780638da5cb5b146103965780638ea98117146103c157806391ad27b4146103ea5780639eccacf6146104155761014b565b8063473f1ddc11610108578063473f1ddc1461022d5780635f1b0fd81461025857806361728f39146102835780636e04ff0d146102ae57806379ba5097146102ec5780637ccfd7fc146103035761014b565b806309bc33a714610150578063115cbaf51461017b5780631fe543e3146101a657806324f74697146101cf5780632cfcc539146101fa5780634585e33b14610204575b600080fd5b34801561015c57600080fd5b50610165610565565b6040516101729190611837565b60405180910390f35b34801561018757600080fd5b5061019061058d565b60405161019d91906118c9565b60405180910390f35b3480156101b257600080fd5b506101cd60048036038101906101c89190611989565b6105a4565b005b3480156101db57600080fd5b506101e461066a565b6040516101f19190611a08565b60405180910390f35b610202610680565b005b34801561021057600080fd5b5061022b60048036038101906102269190611a79565b6107ef565b005b34801561023957600080fd5b50610242610b16565b60405161024f9190611b07565b60405180910390f35b34801561026457600080fd5b5061026d610b40565b60405161027a9190611837565b60405180910390f35b34801561028f57600080fd5b50610298610b4d565b6040516102a59190611b3b565b60405180910390f35b3480156102ba57600080fd5b506102d560048036038101906102d09190611c97565b610b53565b6040516102e3929190611d7a565b60405180910390f35b3480156102f857600080fd5b50610301610c3b565b005b34801561030f57600080fd5b50610318610dd0565b6040516103259190611a08565b60405180910390f35b34801561033a57600080fd5b5061035560048036038101906103509190611daa565b610de6565b6040516103629190611837565b60405180910390f35b34801561037757600080fd5b50610380610e0a565b60405161038d9190611837565b60405180910390f35b3480156103a257600080fd5b506103ab610e10565b6040516103b89190611b07565b60405180910390f35b3480156103cd57600080fd5b506103e860048036038101906103e39190611e03565b610e39565b005b3480156103f657600080fd5b506103ff61101a565b60405161040c9190611837565b60405180910390f35b34801561042157600080fd5b5061042a611042565b6040516104379190611e8f565b60405180910390f35b34801561044c57600080fd5b5061046760048036038101906104629190611daa565b611068565b604051610475929190611eaa565b60405180910390f35b34801561048a57600080fd5b506104936110a6565b6040516104a09190611837565b60405180910390f35b3480156104b557600080fd5b506104d060048036038101906104cb9190611daa565b6110b0565b6040516104dd9190611b07565b60405180910390f35b3480156104f257600080fd5b5061050d60048036038101906105089190611e03565b6110f8565b005b34801561051b57600080fd5b5061052461110c565b6040516105319190611837565b60405180910390f35b34801561054657600080fd5b5061054f611112565b60405161055c9190611837565b60405180910390f35b60007f0000000000000000000000000000000000000000000000000000000000000000905090565b6000600860009054906101000a900460ff16905090565b600260009054906101000a900473ffffffffffffffffffffffffffffffffffffffff1673ffffffffffffffffffffffffffffffffffffffff163373ffffffffffffffffffffffffffffffffffffffff161461065a5733600260009054906101000a900473ffffffffffffffffffffffffffffffffffffffff166040517f1cf993f4000000000000000000000000000000000000000000000000000000008152600401610651929190611ed3565b60405180910390fd5b61066583838361111f565b505050565b600a60009054906101000a900463ffffffff1681565b7f00000000000000000000000000000000000000000000000000000000000000003410156106da576040517f3038c00a00000000000000000000000000000000000000000000000000000000815260040160405180910390fd5b600060018111156106ee576106ed611852565b5b600860009054906101000a900460ff1660018111156107105761070f611852565b5b14610747576040517fd24a271400000000000000000000000000000000000000000000000000000000815260040160405180910390fd5b6007339080600181540180825580915050600190039060005260206000200160009091909190916101000a81548173ffffffffffffffffffffffffffffffffffffffff021916908373ffffffffffffffffffffffffffffffffffffffff1602179055503373ffffffffffffffffffffffffffffffffffffffff167f0805e1d667bddb8a95f0f09880cf94f403fb596ce79928d9f29b74203ba284d460405160405180910390a2565b600061080960405180602001604052806000815250610b53565b5090506000838381019061081d9190611f28565b90508161088b5747600780549050600860009054906101000a900460ff16600181111561084d5761084c611852565b5b6040517f584327aa00000000000000000000000000000000000000000000000000000000815260040161088293929190611f55565b60405180910390fd5b6001600860006101000a81548160ff021916908360018111156108b1576108b0611852565b5b02179055506000600260009054906101000a900473ffffffffffffffffffffffffffffffffffffffff1673ffffffffffffffffffffffffffffffffffffffff16639b1c385e6040518060c0016040528060095481526020016004548152602001600361ffff168152602001600a60009054906101000a900463ffffffff1663ffffffff168152602001600a60049054906101000a900463ffffffff1663ffffffff1681526020016109716040518060200160405280881515815250611489565b8152506040518263ffffffff1660e01b815260040161099091906120a9565b6020604051808303816000875af11580156109af573d6000803e3d6000fd5b505050506040513d601f19601f820116820180604052508101906109d391906120e0565b905080600c81905550600b8190806001815401808255809150506001900390600052602060002001600090919091909150556040518060600160405280600015158152602001600115158152602001600067ffffffffffffffff811115610a3d57610a3c611b6c565b5b604051908082528060200260200182016040528015610a6b5781602001602082028036833780820191505090505b508152506003600083815260200190815260200160002060008201518160000160006101000a81548160ff02191690831515021790555060208201518160000160016101000a81548160ff0219169083151502179055506040820151816001019080519060200190610ade9291906116dd565b50905050807fcd6e45c8998311cab7e9d4385596cac867e20a0587194b954fa3a731c93ce78b60405160405180910390a25050505050565b6000600660009054906101000a900473ffffffffffffffffffffffffffffffffffffffff16905090565b6000600361ffff16905090565b60095481565b600060606000600860009054906101000a900460ff166001811115610b7b57610b7a611852565b5b60006001811115610b8f57610b8e611852565b5b14905060007f000000000000000000000000000000000000000000000000000000000000000060055442610bc3919061213c565b11905060008060078054905011905060008047119050828015610be35750835b8015610bec5750805b8015610bf55750815b9550856040518060400160405280600381526020017f30783000000000000000000000000000000000000000000000000000000000008152509550955050505050915091565b600160009054906101000a900473ffffffffffffffffffffffffffffffffffffffff1673ffffffffffffffffffffffffffffffffffffffff163373ffffffffffffffffffffffffffffffffffffffff1614610ccb576040517f08c379a0000000000000000000000000000000000000000000000000000000008152600401610cc2906121cd565b60405180910390fd5b60008060009054906101000a900473ffffffffffffffffffffffffffffffffffffffff169050336000806101000a81548173ffffffffffffffffffffffffffffffffffffffff021916908373ffffffffffffffffffffffffffffffffffffffff1602179055506000600160006101000a81548173ffffffffffffffffffffffffffffffffffffffff021916908373ffffffffffffffffffffffffffffffffffffffff1602179055503373ffffffffffffffffffffffffffffffffffffffff168173ffffffffffffffffffffffffffffffffffffffff167f8be0079c531659141344cd1fd0a4f28419497f9722a3daafe3b4186f6b6457e060405160405180910390a350565b600a60049054906101000a900463ffffffff1681565b600b8181548110610df657600080fd5b906000526020600020016000915090505481565b60045481565b60008060009054906101000a900473ffffffffffffffffffffffffffffffffffffffff16905090565b610e41610e10565b73ffffffffffffffffffffffffffffffffffffffff163373ffffffffffffffffffffffffffffffffffffffff1614158015610eca5750600260009054906101000a900473ffffffffffffffffffffffffffffffffffffffff1673ffffffffffffffffffffffffffffffffffffffff163373ffffffffffffffffffffffffffffffffffffffff1614155b15610f395733610ed8610e10565b600260009054906101000a900473ffffffffffffffffffffffffffffffffffffffff166040517f061db9c1000000000000000000000000000000000000000000000000000000008152600401610f30939291906121ed565b60405180910390fd5b600073ffffffffffffffffffffffffffffffffffffffff168173ffffffffffffffffffffffffffffffffffffffff1603610f9f576040517fd92e233d00000000000000000000000000000000000000000000000000000000815260040160405180910390fd5b80600260006101000a81548173ffffffffffffffffffffffffffffffffffffffff021916908373ffffffffffffffffffffffffffffffffffffffff1602179055507fd1a6a14209a385a964d036e404cb5cfb71f4000cdb03c9366292430787261be68160405161100f9190611b07565b60405180910390a150565b60007f0000000000000000000000000000000000000000000000000000000000000000905090565b600260009054906101000a900473ffffffffffffffffffffffffffffffffffffffff1681565b60036020528060005260406000206000915090508060000160009054906101000a900460ff16908060000160019054906101000a900460ff16905082565b6000600554905090565b6000600782815481106110c6576110c5612224565b5b9060005260206000200160009054906101000a900473ffffffffffffffffffffffffffffffffffffffff169050919050565b611100611521565b611109816115b1565b50565b600c5481565b6000600780549050905090565b6003600084815260200190815260200160002060000160019054906101000a900460ff16611182576040517f08c379a00000000000000000000000000000000000000000000000000000000081526004016111799061229f565b60405180910390fd5b60016003600085815260200190815260200160002060000160006101000a81548160ff02191690831515021790555081816003600086815260200190815260200160002060010191906111d692919061172a565b506000600c54148061120b575060036000600c54815260200190815260200160002060000160009054906101000a900460ff16155b15611242576040517f46e9e86100000000000000000000000000000000000000000000000000000000815260040160405180910390fd5b60006007808054905060036000600c54815260200190815260200160002060010160008154811061127657611275612224565b5b906000526020600020015461128b91906122ee565b8154811061129c5761129b612224565b5b9060005260206000200160009054906101000a900473ffffffffffffffffffffffffffffffffffffffff16905080600660006101000a81548173ffffffffffffffffffffffffffffffffffffffff021916908373ffffffffffffffffffffffffffffffffffffffff160217905550600067ffffffffffffffff81111561132557611324611b6c565b5b6040519080825280602002602001820160405280156113535781602001602082028036833780820191505090505b5060079080519060200190611369929190611777565b506000600860006101000a81548160ff021916908360018111156113905761138f611852565b5b02179055504260058190555060008173ffffffffffffffffffffffffffffffffffffffff16476040516113c290612350565b60006040518083038185875af1925050503d80600081146113ff576040519150601f19603f3d011682016040523d82523d6000602084013e611404565b606091505b505090508061143f576040517fa1d04b3900000000000000000000000000000000000000000000000000000000815260040160405180910390fd5b8173ffffffffffffffffffffffffffffffffffffffff167f5b690ec4a06fe979403046eaeea5b3ce38524683c3001f662c8b5a829632f7df60405160405180910390a25050505050565b60607f92fd13387c7fe7befbc38d303d6468778fb9731bc4583f17d92989c6fcfdeaaa826040516024016114bd9190612390565b604051602081830303815290604052907bffffffffffffffffffffffffffffffffffffffffffffffffffffffff19166020820180517bffffffffffffffffffffffffffffffffffffffffffffffffffffffff83818316178352505050509050919050565b60008054906101000a900473ffffffffffffffffffffffffffffffffffffffff1673ffffffffffffffffffffffffffffffffffffffff163373ffffffffffffffffffffffffffffffffffffffff16146115af576040517f08c379a00000000000000000000000000000000000000000000000000000000081526004016115a6906123f7565b60405180910390fd5b565b3373ffffffffffffffffffffffffffffffffffffffff168173ffffffffffffffffffffffffffffffffffffffff160361161f576040517f08c379a000000000000000000000000000000000000000000000000000000000815260040161161690612463565b60405180910390fd5b80600160006101000a81548173ffffffffffffffffffffffffffffffffffffffff021916908373ffffffffffffffffffffffffffffffffffffffff1602179055508073ffffffffffffffffffffffffffffffffffffffff1660008054906101000a900473ffffffffffffffffffffffffffffffffffffffff1673ffffffffffffffffffffffffffffffffffffffff167fed8889f560326eb138920d842192f0eb3dd22b4f139c87a2c57538e05bae127860405160405180910390a350565b828054828255906000526020600020908101928215611719579160200282015b828111156117185782518255916020019190600101906116fd565b5b5090506117269190611801565b5090565b828054828255906000526020600020908101928215611766579160200282015b8281111561176557823582559160200191906001019061174a565b5b5090506117739190611801565b5090565b8280548282559060005260206000209081019282156117f0579160200282015b828111156117ef5782518260006101000a81548173ffffffffffffffffffffffffffffffffffffffff021916908373ffffffffffffffffffffffffffffffffffffffff16021790555091602001919060010190611797565b5b5090506117fd9190611801565b5090565b5b8082111561181a576000816000905550600101611802565b5090565b6000819050919050565b6118318161181e565b82525050565b600060208201905061184c6000830184611828565b92915050565b7f4e487b7100000000000000000000000000000000000000000000000000000000600052602160045260246000fd5b6002811061189257611891611852565b5b50565b60008190506118a382611881565b919050565b60006118b382611895565b9050919050565b6118c3816118a8565b82525050565b60006020820190506118de60008301846118ba565b92915050565b6000604051905090565b600080fd5b600080fd5b6119018161181e565b811461190c57600080fd5b50565b60008135905061191e816118f8565b92915050565b600080fd5b600080fd5b600080fd5b60008083601f84011261194957611948611924565b5b8235905067ffffffffffffffff81111561196657611965611929565b5b6020830191508360208202830111156119825761198161192e565b5b9250929050565b6000806000604084860312156119a2576119a16118ee565b5b60006119b08682870161190f565b935050602084013567ffffffffffffffff8111156119d1576119d06118f3565b5b6119dd86828701611933565b92509250509250925092565b600063ffffffff82169050919050565b611a02816119e9565b82525050565b6000602082019050611a1d60008301846119f9565b92915050565b60008083601f840112611a3957611a38611924565b5b8235905067ffffffffffffffff811115611a5657611a55611929565b5b602083019150836001820283011115611a7257611a7161192e565b5b9250929050565b60008060208385031215611a9057611a8f6118ee565b5b600083013567ffffffffffffffff811115611aae57611aad6118f3565b5b611aba85828601611a23565b92509250509250929050565b600073ffffffffffffffffffffffffffffffffffffffff82169050919050565b6000611af182611ac6565b9050919050565b611b0181611ae6565b82525050565b6000602082019050611b1c6000830184611af8565b92915050565b6000819050919050565b611b3581611b22565b82525050565b6000602082019050611b506000830184611b2c565b92915050565b600080fd5b6000601f19601f8301169050919050565b7f4e487b7100000000000000000000000000000000000000000000000000000000600052604160045260246000fd5b611ba482611b5b565b810181811067ffffffffffffffff82111715611bc357611bc2611b6c565b5b80604052505050565b6000611bd66118e4565b9050611be28282611b9b565b919050565b600067ffffffffffffffff821115611c0257611c01611b6c565b5b611c0b82611b5b565b9050602081019050919050565b82818337600083830152505050565b6000611c3a611c3584611be7565b611bcc565b905082815260208101848484011115611c5657611c55611b56565b5b611c61848285611c18565b509392505050565b600082601f830112611c7e57611c7d611924565b5b8135611c8e848260208601611c27565b91505092915050565b600060208284031215611cad57611cac6118ee565b5b600082013567ffffffffffffffff811115611ccb57611cca6118f3565b5b611cd784828501611c69565b91505092915050565b60008115159050919050565b611cf581611ce0565b82525050565b600081519050919050565b600082825260208201905092915050565b60005b83811015611d35578082015181840152602081019050611d1a565b60008484015250505050565b6000611d4c82611cfb565b611d568185611d06565b9350611d66818560208601611d17565b611d6f81611b5b565b840191505092915050565b6000604082019050611d8f6000830185611cec565b8181036020830152611da18184611d41565b90509392505050565b600060208284031215611dc057611dbf6118ee565b5b6000611dce8482850161190f565b91505092915050565b611de081611ae6565b8114611deb57600080fd5b50565b600081359050611dfd81611dd7565b92915050565b600060208284031215611e1957611e186118ee565b5b6000611e2784828501611dee565b91505092915050565b6000819050919050565b6000611e55611e50611e4b84611ac6565b611e30565b611ac6565b9050919050565b6000611e6782611e3a565b9050919050565b6000611e7982611e5c565b9050919050565b611e8981611e6e565b82525050565b6000602082019050611ea46000830184611e80565b92915050565b6000604082019050611ebf6000830185611cec565b611ecc6020830184611cec565b9392505050565b6000604082019050611ee86000830185611af8565b611ef56020830184611af8565b9392505050565b611f0581611ce0565b8114611f1057600080fd5b50565b600081359050611f2281611efc565b92915050565b600060208284031215611f3e57611f3d6118ee565b5b6000611f4c84828501611f13565b91505092915050565b6000606082019050611f6a6000830186611828565b611f776020830185611828565b611f846040830184611828565b949350505050565b611f9581611b22565b82525050565b611fa48161181e565b82525050565b600061ffff82169050919050565b611fc181611faa565b82525050565b611fd0816119e9565b82525050565b600082825260208201905092915050565b6000611ff282611cfb565b611ffc8185611fd6565b935061200c818560208601611d17565b61201581611b5b565b840191505092915050565b600060c0830160008301516120386000860182611f8c565b50602083015161204b6020860182611f9b565b50604083015161205e6040860182611fb8565b5060608301516120716060860182611fc7565b5060808301516120846080860182611fc7565b5060a083015184820360a086015261209c8282611fe7565b9150508091505092915050565b600060208201905081810360008301526120c38184612020565b905092915050565b6000815190506120da816118f8565b92915050565b6000602082840312156120f6576120f56118ee565b5b6000612104848285016120cb565b91505092915050565b7f4e487b7100000000000000000000000000000000000000000000000000000000600052601160045260246000fd5b60006121478261181e565b91506121528361181e565b925082820390508181111561216a5761216961210d565b5b92915050565b600082825260208201905092915050565b7f4d7573742062652070726f706f736564206f776e657200000000000000000000600082015250565b60006121b7601683612170565b91506121c282612181565b602082019050919050565b600060208201905081810360008301526121e6816121aa565b9050919050565b60006060820190506122026000830186611af8565b61220f6020830185611af8565b61221c6040830184611af8565b949350505050565b7f4e487b7100000000000000000000000000000000000000000000000000000000600052603260045260246000fd5b7f72657175657374206e6f7420666f756e64000000000000000000000000000000600082015250565b6000612289601183612170565b915061229482612253565b602082019050919050565b600060208201905081810360008301526122b88161227c565b9050919050565b7f4e487b7100000000000000000000000000000000000000000000000000000000600052601260045260246000fd5b60006122f98261181e565b91506123048361181e565b925082612314576123136122bf565b5b828206905092915050565b600081905092915050565b50565b600061233a60008361231f565b91506123458261232a565b600082019050919050565b600061235b8261232d565b9150819050919050565b61236e81611ce0565b82525050565b60208201600082015161238a6000850182612365565b50505050565b60006020820190506123a56000830184612374565b92915050565b7f4f6e6c792063616c6c61626c65206279206f776e657200000000000000000000600082015250565b60006123e1601683612170565b91506123ec826123ab565b602082019050919050565b60006020820190508181036000830152612410816123d4565b9050919050565b7f43616e6e6f74207472616e7366657220746f2073656c66000000000000000000600082015250565b600061244d601783612170565b915061245882612417565b602082019050919050565b6000602082019050818103600083015261247c81612440565b905091905056fea264697066735822122077f74fdef6386fcb96a8a361753afafdcacb417b9e2d1a00d8d103165c4eb1b064736f6c634300081c0033",
  "linkReferences": {},
  "deployedLinkReferences": {}
}